{
  "contractName": "Election",
  "abi": [
    {
      "constant": true,
      "inputs": [],
      "name": "candidatesCount",
      "outputs": [
        {
          "name": "",
          "type": "uint256"
        }
      ],
      "payable": false,
      "stateMutability": "view",
      "type": "function"
    },
    {
      "constant": true,
      "inputs": [
        {
          "name": "",
          "type": "uint256"
        }
      ],
      "name": "candidates",
      "outputs": [
        {
          "name": "id",
          "type": "uint256"
        },
        {
          "name": "name",
          "type": "string"
        },
        {
          "name": "voteCount",
          "type": "uint256"
        },
        {
          "name": "sum",
          "type": "uint256"
        }
      ],
      "payable": false,
      "stateMutability": "view",
      "type": "function"
    },
    {
      "inputs": [],
      "payable": false,
      "stateMutability": "nonpayable",
      "type": "constructor"
    },
    {
      "anonymous": false,
      "inputs": [
        {
          "indexed": true,
          "name": "_candidateID",
          "type": "uint256"
        }
      ],
      "name": "votedEvent",
      "type": "event"
    },
    {
      "constant": false,
      "inputs": [
        {
          "name": "_candidateID",
          "type": "uint256"
        },
        {
          "name": "_rating",
          "type": "uint256"
        }
      ],
      "name": "vote",
      "outputs": [],
      "payable": false,
      "stateMutability": "nonpayable",
      "type": "function"
    }
  ],
  "bytecode": "0x608060405234801561001057600080fd5b5061005e6040805190810160405280600781526020017f44726f6e652031000000000000000000000000000000000000000000000000008152506100b0640100000000026401000000009004565b6100ab6040805190810160405280600781526020017f44726f6e652032000000000000000000000000000000000000000000000000008152506100b0640100000000026401000000009004565b6101e2565b6001600081548092919060010191905055506080604051908101604052806001548152602001828152602001600081526020016000815250600080600154815260200190815260200160002060008201518160000155602082015181600101908051906020019061012292919061013d565b50604082015181600201556060820151816003015590505050565b828054600181600116156101000203166002900490600052602060002090601f016020900481019282601f1061017e57805160ff19168380011785556101ac565b828001600101855582156101ac579182015b828111156101ab578251825591602001919060010190610190565b5b5090506101b991906101bd565b5090565b6101df91905b808211156101db5760008160009055506001016101c3565b5090565b90565b610324806101f16000396000f300608060405260043610610057576000357c0100000000000000000000000000000000000000000000000000000000900463ffffffff1680632d35a8a21461005c5780633477ee2e14610087578063b384abef14610142575b600080fd5b34801561006857600080fd5b50610071610179565b6040518082815260200191505060405180910390f35b34801561009357600080fd5b506100b26004803603810190808035906020019092919050505061017f565b6040518085815260200180602001848152602001838152602001828103825285818151815260200191508051906020019080838360005b838110156101045780820151818401526020810190506100e9565b50505050905090810190601f1680156101315780820380516001836020036101000a031916815260200191505b509550505050505060405180910390f35b34801561014e57600080fd5b506101776004803603810190808035906020019092919080359060200190929190505050610247565b005b60015481565b6000602052806000526040600020600091509050806000015490806001018054600181600116156101000203166002900480601f0160208091040260200160405190810160405280929190818152602001828054600181600116156101000203166002900480156102315780601f1061020657610100808354040283529160200191610231565b820191906000526020600020905b81548152906001019060200180831161021457829003601f168201915b5050505050908060020154908060030154905084565b60008211801561025957506001548211155b151561026457600080fd5b600160008084815260200190815260200160002060020154016000808481526020019081526020016000206002018190555080600080848152602001908152602001600020600301540160008084815260200190815260200160002060030181905550817ffff3c900d938d21d0990d786e819f29b8d05c1ef587b462b939609625b684b1660405160405180910390a250505600a165627a7a72305820823e59d44e9c2d552066e042d498c995fd58251bccf647b460b6f5efcfe513ee0029",
  "source": "pragma solidity ^0.4.2;\r\n\r\ncontract Election{\r\n    //Model a Candidate\r\n    struct Candidate{\r\n        uint id;\r\n        string name;\r\n        uint voteCount;\r\n        uint sum;\r\n    }\r\n    //Store Candidates\r\n    //Fetch Candidates\r\n    mapping(uint => Candidate) public candidates;\r\n    //Store Candidates Count\r\n    uint public candidatesCount;\r\n\r\n    //voted event\r\n    event votedEvent (\r\n        uint indexed _candidateID\r\n    );\r\n\r\n    function Election () public {\r\n        addCandidate(\"Drone 1\");\r\n        addCandidate(\"Drone 2\");\r\n    }\r\n\r\n    function addCandidate (string _name) private{\r\n        candidatesCount++;\r\n        candidates[candidatesCount] = Candidate(candidatesCount, _name, 0, 0);\r\n    }\r\n\r\n    function vote(uint _candidateID, uint _rating) public {\r\n        //require a valid candidate\r\n        require(_candidateID > 0 && _candidateID <= candidatesCount);\r\n       \tcandidates[_candidateID].voteCount = candidates[_candidateID].voteCount + 1;\r\n\tcandidates[_candidateID].sum = candidates[_candidateID].sum + _rating;\r\n        //trigger voted voted\r\n        votedEvent(_candidateID);\r\n    }\r\n}\r\n",
  "sourcePath": "/home/manu/Projects/Drone Ratings/Drone Ratings/contracts/Election.sol",
  "compiler": {
    "name": "solc",
    "version": "0.4.24+commit.e67f0147.Emscripten.clang"
  },
  "schemaVersion": "2.0.1",
  "updatedAt": "2018-11-12T09:46:48.604Z"
}