{
    "contractName": "QuickswapRouterV1",
    "abi": [
        {
            "inputs": [
                {
                    "internalType": "address",
                    "name": "_owner",
                    "type": "address"
                }
            ],
            "stateMutability": "nonpayable",
            "type": "constructor"
        },
        {
            "anonymous": false,
            "inputs": [
                {
                    "indexed": true,
                    "internalType": "address",
                    "name": "previousOwner",
                    "type": "address"
                },
                {
                    "indexed": true,
                    "internalType": "address",
                    "name": "newOwner",
                    "type": "address"
                }
            ],
            "name": "OwnershipTransferred",
            "type": "event"
        },
        {
            "anonymous": false,
            "inputs": [
                {
                    "indexed": true,
                    "internalType": "address",
                    "name": "_rewardToken",
                    "type": "address"
                },
                {
                    "indexed": false,
                    "internalType": "uint256",
                    "name": "_reward",
                    "type": "uint256"
                },
                {
                    "indexed": false,
                    "internalType": "uint256",
                    "name": "_periodFinish",
                    "type": "uint256"
                }
            ],
            "name": "RewardAdded",
            "type": "event"
        },
        {
            "anonymous": false,
            "inputs": [
                {
                    "indexed": true,
                    "internalType": "address",
                    "name": "_rewardToken",
                    "type": "address"
                },
                {
                    "indexed": true,
                    "internalType": "address",
                    "name": "_staker",
                    "type": "address"
                },
                {
                    "indexed": false,
                    "internalType": "uint256",
                    "name": "_reward",
                    "type": "uint256"
                }
            ],
            "name": "RewardPaid",
            "type": "event"
        },
        {
            "anonymous": false,
            "inputs": [
                {
                    "indexed": true,
                    "internalType": "address",
                    "name": "_rewardToken",
                    "type": "address"
                },
                {
                    "indexed": true,
                    "internalType": "address",
                    "name": "_staker",
                    "type": "address"
                },
                {
                    "indexed": false,
                    "internalType": "uint256",
                    "name": "_amount",
                    "type": "uint256"
                }
            ],
            "name": "Staked",
            "type": "event"
        },
        {
            "anonymous": false,
            "inputs": [
                {
                    "indexed": true,
                    "internalType": "address",
                    "name": "_rewardToken",
                    "type": "address"
                },
                {
                    "indexed": true,
                    "internalType": "address",
                    "name": "_staker",
                    "type": "address"
                },
                {
                    "indexed": false,
                    "internalType": "uint256",
                    "name": "_amount",
                    "type": "uint256"
                }
            ],
            "name": "Withdrawn",
            "type": "event"
        },
        {
            "inputs": [],
            "name": "DRAGON_LAIR",
            "outputs": [
                {
                    "internalType": "contract IDragonLair",
                    "name": "",
                    "type": "address"
                }
            ],
            "stateMutability": "view",
            "type": "function"
        },
        {
            "inputs": [],
            "name": "QUICK",
            "outputs": [
                {
                    "internalType": "address",
                    "name": "",
                    "type": "address"
                }
            ],
            "stateMutability": "view",
            "type": "function"
        },
        {
            "inputs": [
                {
                    "internalType": "address",
                    "name": "_rewardToken",
                    "type": "address"
                },
                {
                    "internalType": "address",
                    "name": "_account",
                    "type": "address"
                }
            ],
            "name": "balanceOf",
            "outputs": [
                {
                    "internalType": "uint256",
                    "name": "",
                    "type": "uint256"
                }
            ],
            "stateMutability": "view",
            "type": "function"
        },
        {
            "inputs": [
                {
                    "internalType": "address",
                    "name": "_rewardToken",
                    "type": "address"
                },
                {
                    "internalType": "address",
                    "name": "_account",
                    "type": "address"
                }
            ],
            "name": "earned",
            "outputs": [
                {
                    "internalType": "uint256",
                    "name": "",
                    "type": "uint256"
                }
            ],
            "stateMutability": "view",
            "type": "function"
        },
        {
            "inputs": [
                {
                    "internalType": "uint256",
                    "name": "_quickAmount",
                    "type": "uint256"
                }
            ],
            "name": "enterDragonLair",
            "outputs": [],
            "stateMutability": "nonpayable",
            "type": "function"
        },
        {
            "inputs": [
                {
                    "components": [
                        {
                            "internalType": "address",
                            "name": "rewardToken",
                            "type": "address"
                        },
                        {
                            "internalType": "uint256",
                            "name": "quickAmount",
                            "type": "uint256"
                        }
                    ],
                    "internalType": "struct QuickswapRouterV1.QuickStakeInput[]",
                    "name": "_quickStakeInput",
                    "type": "tuple[]"
                }
            ],
            "name": "enterDragonLairAndStake",
            "outputs": [],
            "stateMutability": "nonpayable",
            "type": "function"
        },
        {
            "inputs": [
                {
                    "internalType": "address[]",
                    "name": "_rewardTokens",
                    "type": "address[]"
                }
            ],
            "name": "exitPools",
            "outputs": [],
            "stateMutability": "nonpayable",
            "type": "function"
        },
        {
            "inputs": [
                {
                    "internalType": "address[]",
                    "name": "_rewardTokens",
                    "type": "address[]"
                }
            ],
            "name": "getRewards",
            "outputs": [],
            "stateMutability": "nonpayable",
            "type": "function"
        },
        {
            "inputs": [
                {
                    "internalType": "address",
                    "name": "_rewardToken",
                    "type": "address"
                }
            ],
            "name": "lastTimeRewardApplicable",
            "outputs": [
                {
                    "internalType": "uint256",
                    "name": "",
                    "type": "uint256"
                }
            ],
            "stateMutability": "view",
            "type": "function"
        },
        {
            "inputs": [
                {
                    "components": [
                        {
                            "internalType": "address",
                            "name": "rewardToken",
                            "type": "address"
                        },
                        {
                            "internalType": "uint256",
                            "name": "reward",
                            "type": "uint256"
                        },
                        {
                            "internalType": "uint256",
                            "name": "rewardDuration",
                            "type": "uint256"
                        }
                    ],
                    "internalType": "struct QuickswapRouterV1.RewardInfo[]",
                    "name": "_rewards",
                    "type": "tuple[]"
                }
            ],
            "name": "notifyRewardAmount",
            "outputs": [],
            "stateMutability": "nonpayable",
            "type": "function"
        },
        {
            "inputs": [],
            "name": "owner",
            "outputs": [
                {
                    "internalType": "address",
                    "name": "owner_",
                    "type": "address"
                }
            ],
            "stateMutability": "view",
            "type": "function"
        },
        {
            "inputs": [
                {
                    "internalType": "address",
                    "name": "_rewardToken",
                    "type": "address"
                }
            ],
            "name": "pool",
            "outputs": [
                {
                    "components": [
                        {
                            "internalType": "address",
                            "name": "rewardToken",
                            "type": "address"
                        },
                        {
                            "internalType": "uint256",
                            "name": "periodFinish",
                            "type": "uint256"
                        },
                        {
                            "internalType": "uint256",
                            "name": "totalSupply",
                            "type": "uint256"
                        },
                        {
                            "internalType": "uint256",
                            "name": "rewardRate",
                            "type": "uint256"
                        },
                        {
                            "internalType": "uint256",
                            "name": "rewardPerToken",
                            "type": "uint256"
                        }
                    ],
                    "internalType": "struct QuickswapRouterV1.StakePool",
                    "name": "stakePool_",
                    "type": "tuple"
                }
            ],
            "stateMutability": "view",
            "type": "function"
        },
        {
            "inputs": [],
            "name": "pools",
            "outputs": [
                {
                    "components": [
                        {
                            "internalType": "address",
                            "name": "rewardToken",
                            "type": "address"
                        },
                        {
                            "internalType": "uint256",
                            "name": "periodFinish",
                            "type": "uint256"
                        },
                        {
                            "internalType": "uint256",
                            "name": "totalSupply",
                            "type": "uint256"
                        },
                        {
                            "internalType": "uint256",
                            "name": "rewardRate",
                            "type": "uint256"
                        },
                        {
                            "internalType": "uint256",
                            "name": "rewardPerToken",
                            "type": "uint256"
                        }
                    ],
                    "internalType": "struct QuickswapRouterV1.StakePool[]",
                    "name": "stakePools_",
                    "type": "tuple[]"
                }
            ],
            "stateMutability": "view",
            "type": "function"
        },
        {
            "inputs": [
                {
                    "internalType": "address[]",
                    "name": "_rewardTokens",
                    "type": "address[]"
                }
            ],
            "name": "removeStakingPools",
            "outputs": [],
            "stateMutability": "nonpayable",
            "type": "function"
        },
        {
            "inputs": [
                {
                    "internalType": "address",
                    "name": "_rewardToken",
                    "type": "address"
                }
            ],
            "name": "rewardPerToken",
            "outputs": [
                {
                    "internalType": "uint256",
                    "name": "",
                    "type": "uint256"
                }
            ],
            "stateMutability": "view",
            "type": "function"
        },
        {
            "inputs": [
                {
                    "components": [
                        {
                            "internalType": "address",
                            "name": "rewardToken",
                            "type": "address"
                        },
                        {
                            "internalType": "uint256",
                            "name": "amount",
                            "type": "uint256"
                        }
                    ],
                    "internalType": "struct QuickswapRouterV1.StakeInput[]",
                    "name": "_stakes",
                    "type": "tuple[]"
                }
            ],
            "name": "stake",
            "outputs": [],
            "stateMutability": "nonpayable",
            "type": "function"
        },
        {
            "inputs": [
                {
                    "internalType": "address",
                    "name": "_rewardToken",
                    "type": "address"
                },
                {
                    "internalType": "address",
                    "name": "_staker",
                    "type": "address"
                }
            ],
            "name": "stakerPool",
            "outputs": [
                {
                    "components": [
                        {
                            "internalType": "address",
                            "name": "rewardToken",
                            "type": "address"
                        },
                        {
                            "internalType": "address",
                            "name": "staker",
                            "type": "address"
                        },
                        {
                            "internalType": "uint256",
                            "name": "periodFinish",
                            "type": "uint256"
                        },
                        {
                            "internalType": "uint256",
                            "name": "balance",
                            "type": "uint256"
                        },
                        {
                            "internalType": "uint256",
                            "name": "earned",
                            "type": "uint256"
                        }
                    ],
                    "internalType": "struct QuickswapRouterV1.StakerPool",
                    "name": "stakerPool_",
                    "type": "tuple"
                }
            ],
            "stateMutability": "view",
            "type": "function"
        },
        {
            "inputs": [
                {
                    "internalType": "address",
                    "name": "_staker",
                    "type": "address"
                }
            ],
            "name": "stakerPools",
            "outputs": [
                {
                    "components": [
                        {
                            "internalType": "address",
                            "name": "rewardToken",
                            "type": "address"
                        },
                        {
                            "internalType": "address",
                            "name": "staker",
                            "type": "address"
                        },
                        {
                            "internalType": "uint256",
                            "name": "periodFinish",
                            "type": "uint256"
                        },
                        {
                            "internalType": "uint256",
                            "name": "balance",
                            "type": "uint256"
                        },
                        {
                            "internalType": "uint256",
                            "name": "earned",
                            "type": "uint256"
                        }
                    ],
                    "internalType": "struct QuickswapRouterV1.StakerPool[]",
                    "name": "stakerPools_",
                    "type": "tuple[]"
                }
            ],
            "stateMutability": "view",
            "type": "function"
        },
        {
            "inputs": [
                {
                    "internalType": "address",
                    "name": "_rewardToken",
                    "type": "address"
                }
            ],
            "name": "totalSupply",
            "outputs": [
                {
                    "internalType": "uint256",
                    "name": "",
                    "type": "uint256"
                }
            ],
            "stateMutability": "view",
            "type": "function"
        },
        {
            "inputs": [
                {
                    "internalType": "address",
                    "name": "_newOwner",
                    "type": "address"
                }
            ],
            "name": "transferOwnership",
            "outputs": [],
            "stateMutability": "nonpayable",
            "type": "function"
        },
        {
            "inputs": [
                {
                    "components": [
                        {
                            "internalType": "address",
                            "name": "rewardToken",
                            "type": "address"
                        },
                        {
                            "internalType": "uint256",
                            "name": "amount",
                            "type": "uint256"
                        }
                    ],
                    "internalType": "struct QuickswapRouterV1.StakeInput[]",
                    "name": "_stakes",
                    "type": "tuple[]"
                }
            ],
            "name": "withdraw",
            "outputs": [],
            "stateMutability": "nonpayable",
            "type": "function"
        },
        {
            "inputs": [
                {
                    "internalType": "address[]",
                    "name": "_rewardTokens",
                    "type": "address[]"
                }
            ],
            "name": "withdrawAll",
            "outputs": [],
            "stateMutability": "nonpayable",
            "type": "function"
        }
    ],
    "bytecode": "60806040523480156200001157600080fd5b50604051620026ee380380620026ee8339810160408190526200003491620000fb565b600080546001600160a01b0319166001600160a01b03831617905560405163095ea7b360e01b815273f28164a485b0b2c90639e47b0f377b4a438a16b16004820152600019602482015273831753dd7087cac61ab5644b308642cc1c33dc139063095ea7b390604401602060405180830381600087803b158015620000b857600080fd5b505af1158015620000cd573d6000803e3d6000fd5b505050506040513d601f19601f82011682018060405250810190620000f391906200012d565b505062000151565b6000602082840312156200010e57600080fd5b81516001600160a01b03811681146200012657600080fd5b9392505050565b6000602082840312156200014057600080fd5b815180151581146200012657600080fd5b61258d80620001616000396000f3fe608060405234801561001057600080fd5b50600436106101425760003560e01c80636bedd933116100b8578063c5c51dca1161007c578063c5c51dca146102dd578063e4dc2aa4146102f2578063ecdbb2b31461031f578063f122977714610332578063f2fde38b14610345578063f7888aec1461035857600080fd5b80636bedd933146102805780637de14cb214610293578063801c5236146102a65780638da5cb5b146102b95780638fa89112146102ca57600080fd5b806344da9ae01161010a57806344da9ae0146101f45780634e7c595514610214578063510ccb4314610234578063638634ee146102475780636568a2791461025a578063661adcec1461026d57600080fd5b80630f653e2014610147578063156522a81461015c578063188672a0146101855780631ad56247146101b8578063211dc32d146101d3575b600080fd5b61015a610155366004611f7c565b610395565b005b61016f61016a36600461200d565b6103a4565b60405161017c9190612028565b60405180910390f35b6101a073831753dd7087cac61ab5644b308642cc1c33dc1381565b6040516001600160a01b03909116815260200161017c565b6101a073f28164a485b0b2c90639e47b0f377b4a438a16b181565b6101e66101e1366004612066565b61040e565b60405190815260200161017c565b610207610202366004612066565b61048e565b60405161017c91906120d4565b61022761022236600461200d565b610504565b60405161017c91906120e2565b61015a610242366004611f7c565b610601565b6101e661025536600461200d565b6106ee565b61015a610268366004611f7c565b610718565b61015a61027b36600461217c565b6107c2565b61015a61028e3660046121be565b610a09565b61015a6102a1366004612221565b610dc5565b61015a6102b43660046122aa565b610ef3565b6000546001600160a01b03166101a0565b61015a6102d8366004611f7c565b610f21565b6102e561116b565b60405161017c919061237e565b6101e661030036600461200d565b6001600160a01b03166000908152600160208190526040909120015490565b61015a61032d36600461217c565b61123e565b6101e661034036600461200d565b6112d1565b61015a61035336600461200d565b61135b565b6101e6610366366004612066565b6001600160a01b0391821660009081526001602090815260408083209390941682526004909201909152205490565b6103a08282336113e0565b5050565b6103ac611f03565b6001600160a01b038216600081815260016020818152604092839020835160a081018552948552805463ffffffff16918501919091529081015491830191909152600281015460608301529060808101610405856112d1565b90529392505050565b6001600160a01b038083166000908152600160208181526040808420948616845260048501909152822060028101549181015492939290916104839161047d90670de0b6b3a7640000906104779061046f906104698c6112d1565b9061156f565b8654906115cb565b906115d7565b90611632565b925050505b92915050565b610496611f3b565b6001600160a01b03808416600081815260016020908152604080832094871680845260048601835292819020815160a08101835294855291840192909252835463ffffffff16918301919091528054606083015290608081016104f9878761040e565b905295945050505050565b6001600160a01b0381166000908152600360205260409020546060908067ffffffffffffffff8111156105395761053961223a565b60405190808252806020026020018201604052801561057257816020015b61055f611f3b565b8152602001906001900390816105575790505b50915060005b818110156105fa576001600160a01b038416600090815260036020526040902080546105ca9190839081106105af576105af6123f1565b6000918252602090912001546001600160a01b03168561048e565b8382815181106105dc576105dc6123f1565b602002602001018190525080806105f29061241d565b915050610578565b5050919050565b60005b818110156106e9576000838383818110610620576106206123f1565b9050602002016020810190610635919061200d565b9050610641813361163e565b6001600160a01b03811660009081526001602090815260408083203384526004019091529020600281015480156106d357600060028301556106848333836116d7565b60405181815233906001600160a01b038516907f540798df468d7b23d11f156fdb954cb19ad414d150722a7b6d55ba369dea792e9060200160405180910390a381546106d3576106d3836117eb565b50505080806106e19061241d565b915050610604565b505050565b6001600160a01b03811660009081526001602052604081205461048890429063ffffffff16611942565b6000805b828110156107a2576000848483818110610738576107386123f1565b905060200201602081019061074d919061200d565b6001600160a01b03811660009081526001602090815260408083203384526004019091529020549091506107818185612438565b935061078d8282611958565b5050808061079a9061241d565b91505061071c565b506106e973f28164a485b0b2c90639e47b0f377b4a438a16b133836116d7565b60008167ffffffffffffffff8111156107dd576107dd61223a565b60405190808252806020026020018201604052801561082257816020015b60408051808201909152600080825260208201528152602001906001900390816107fb5790505b5090506000805b8381101561097257848482818110610843576108436123f1565b90506040020160200135826108589190612438565b91506040518060400160405280868684818110610877576108776123f1565b61088d926020604090920201908101915061200d565b6001600160a01b0316815260200173f28164a485b0b2c90639e47b0f377b4a438a16b1637ea715e98888868181106108c7576108c76123f1565b905060400201602001356040518263ffffffff1660e01b81526004016108ef91815260200190565b60206040518083038186803b15801561090757600080fd5b505afa15801561091b573d6000803e3d6000fd5b505050506040513d601f19601f8201168201806040525081019061093f9190612450565b815250838281518110610954576109546123f1565b6020026020010181905250808061096a9061241d565b915050610829565b5061099373831753dd7087cac61ab5644b308642cc1c33dc13333084611a66565b604051632967cf8360e21b81526004810182905273f28164a485b0b2c90639e47b0f377b4a438a16b19063a59f3e0c90602401600060405180830381600087803b1580156109e057600080fd5b505af11580156109f4573d6000803e3d6000fd5b50505050610a028233611b96565b5050505050565b6000546001600160a01b03163314610a3c5760405162461bcd60e51b8152600401610a3390612469565b60405180910390fd5b60005b818110156106e95736838383818110610a5a57610a5a6123f1565b60600291909101915060009050610a74602083018361200d565b6001600160a01b03161415610ad55760405162461bcd60e51b815260206004820152602160248201527f52657761726420746f6b656e2063616e6e6f74206265206164647265737328306044820152602960f81b6064820152608401610a33565b610aea610ae5602083018361200d565b611e14565b610b01610afa602083018361200d565b600061163e565b6000600181610b13602085018561200d565b6001600160a01b0316815260208101919091526040908101600020805490925063ffffffff90811691610b4c9142918601359061163216565b1015610b9a5760405162461bcd60e51b815260206004820152601d60248201527f43616e6e6f7420726564756365206578697374696e6720706572696f640000006044820152606401610a33565b805460009063ffffffff164210610bc457610bbd602084013560408501356115d7565b9050610c16565b8154600090610bde9063ffffffff90811690429061156f16565b90506000610bf98460020154836115cb90919063ffffffff16565b9050610c116040860135610477602088013584611632565b925050505b600282018190556000610c2c602085018561200d565b6040516370a0823160e01b81523060048201526001600160a01b0391909116906370a082319060240160206040518083038186803b158015610c6d57600080fd5b505afa158015610c81573d6000803e3d6000fd5b505050506040513d601f19601f82011682018060405250810190610ca59190612450565b9050610cb58160408601356115d7565b821115610d045760405162461bcd60e51b815260206004820152601860248201527f50726f76696465642072657761726420746f6f206869676800000000000000006044820152606401610a33565b825463ffffffff428181166401000000000267ffffffff0000000019909316929092178555600091610d3c9160408801359061163216565b845463ffffffff191663ffffffff82161785559050610d5e602086018661200d565b6001600160a01b03167f6a6f77044107a33658235d41bedbbaf2fe9ccdceb313143c947a5e76e1ec8474866020013583604051610da5929190918252602082015260400190565b60405180910390a250505050508080610dbd9061241d565b915050610a3f565b610de573831753dd7087cac61ab5644b308642cc1c33dc13333084611a66565b604051637ea715e960e01b81526004810182905260009073f28164a485b0b2c90639e47b0f377b4a438a16b190637ea715e99060240160206040518083038186803b158015610e3357600080fd5b505afa158015610e47573d6000803e3d6000fd5b505050506040513d601f19601f82011682018060405250810190610e6b9190612450565b604051632967cf8360e21b81526004810184905290915073f28164a485b0b2c90639e47b0f377b4a438a16b19063a59f3e0c90602401600060405180830381600087803b158015610ebb57600080fd5b505af1158015610ecf573d6000803e3d6000fd5b505050506103a073f28164a485b0b2c90639e47b0f377b4a438a16b1303384611a66565b6000610eff8233611b96565b90506103a073f28164a485b0b2c90639e47b0f377b4a438a16b1333084611a66565b6000546001600160a01b03163314610f4b5760405162461bcd60e51b8152600401610a3390612469565b60005b818110156106e9576000838383818110610f6a57610f6a6123f1565b9050602002016020810190610f7f919061200d565b600254909150600090610f949060019061248c565b6001600160a01b038316600090815260016020526040902054909150600160401b900463ffffffff168061103d57826001600160a01b03166000600201600081548110610fe357610fe36123f1565b6000918252602090912001546001600160a01b03161461103d5760405162461bcd60e51b81526020600482015260156024820152741c995dd85c99151bdad95b881b9bdd08199bdd5b99605a1b6044820152606401610a33565b8082146110de57600080600201838154811061105b5761105b6123f1565b600091825260209091200154600280546001600160a01b03909216925082918490811061108a5761108a6123f1565b600091825260208083209190910180546001600160a01b0319166001600160a01b03948516179055929091168152600190915260409020805463ffffffff60401b1916600160401b63ffffffff8416021790555b60028054806110ef576110ef6124a3565b60008281526020808220830160001990810180546001600160a01b03191690559092019092556001600160a01b039490941681526001938490526040812080546bffffffffffffffffffffffff1916815593840181905560028401819055600390930192909255508190506111638161241d565b915050610f4e565b6002546060908067ffffffffffffffff81111561118a5761118a61223a565b6040519080825280602002602001820160405280156111c357816020015b6111b0611f03565b8152602001906001900390816111a85790505b50915060005b818110156112395760008060020182815481106111e8576111e86123f1565b6000918252602090912001546001600160a01b03169050611208816103a4565b84838151811061121a5761121a6123f1565b60200260200101819052505080806112319061241d565b9150506111c9565b505090565b6000805b828110156107a25761129684848381811061125f5761125f6123f1565b611275926020604090920201908101915061200d565b858584818110611287576112876123f1565b90506040020160200135611958565b8383828181106112a8576112a86123f1565b90506040020160200135826112bd9190612438565b9150806112c98161241d565b915050611242565b6001600160a01b03811660009081526001602081905260408220908101546112fd576003015492915050565b6113546113498260010154610477670de0b6b3a764000061134386600201546113438860000160049054906101000a900463ffffffff1663ffffffff166104698c6106ee565b906115cb565b600383015490611632565b9392505050565b6000546001600160a01b031633146113855760405162461bcd60e51b8152600401610a3390612469565b600080546040516001600160a01b03808516939216917f8be0079c531659141344cd1fd0a4f28419497f9722a3daafe3b4186f6b6457e091a3600080546001600160a01b0319166001600160a01b0392909216919091179055565b6000805b83811015611549576000858583818110611400576114006123f1565b9050602002016020810190611415919061200d565b9050611421818561163e565b6001600160a01b038082166000908152600160209081526040808320938816835260048401909152902080546114578187612438565b9550611462846117eb565b6000818460010154611474919061248c565b60018501819055600084556040518381529091506001600160a01b0389811691908716907fd1c19fbcd4551a5edfb66d43d2e337c04837afda3482b42bdf569a8fccdae5fb9060200160405180910390a36002830154801561153057600060028501556114e2868a836116d7565b886001600160a01b0316866001600160a01b03167f540798df468d7b23d11f156fdb954cb19ad414d150722a7b6d55ba369dea792e8360405161152791815260200190565b60405180910390a35b50505050505080806115419061241d565b9150506113e4565b5061156973f28164a485b0b2c90639e47b0f377b4a438a16b183836116d7565b50505050565b6000828211156115c15760405162461bcd60e51b815260206004820152601f60248201527f536166654d6174683a207375627472616374696f6e20756e646572666c6f77006044820152606401610a33565b611354828461248c565b600061135482846124b9565b60008082116116285760405162461bcd60e51b815260206004820152601a60248201527f536166654d6174683a206469766973696f6e206279207a65726f0000000000006044820152606401610a33565b61135482846124d8565b60006113548284612438565b6001600160a01b038216600090815260016020526040902061165f836112d1565b600382015561166d836106ee565b815463ffffffff919091166401000000000267ffffffff00000000199091161781556001600160a01b038216156106e9576001600160a01b038216600090815260048201602052604090206116c2848461040e565b60028201556003820154600190910155505050565b604080516001600160a01b038481166024830152604480830185905283518084039091018152606490920183526020820180516001600160e01b031663a9059cbb60e01b179052915160009283929087169161173391906124fa565b6000604051808303816000865af19150503d8060008114611770576040519150601f19603f3d011682016040523d82523d6000602084013e611775565b606091505b509150915081801561179f57508051158061179f57508080602001905181019061179f9190612535565b610a025760405162461bcd60e51b815260206004820152601f60248201527f5472616e7366657248656c7065723a205452414e534645525f4641494c4544006044820152606401610a33565b336000908152600360205260408120546118079060019061248c565b3360009081526004602090815260408083206001600160a01b03871684529091529020549091508082146118d657336000908152600360205260408120805484908110611856576118566123f1565b60009182526020808320909101543383526003909152604090912080546001600160a01b039092169250829184908110611892576118926123f1565b600091825260208083209190910180546001600160a01b0319166001600160a01b039485161790553382526004815260408083209490931682529290925290208190555b3360009081526003602052604090208054806118f4576118f46124a3565b60008281526020808220830160001990810180546001600160a01b03191690559092019092553382526004815260408083206001600160a01b03969096168352949052928320929092555050565b60008183106119515781611354565b5090919050565b6000811161199c5760405162461bcd60e51b8152602060048201526011602482015270043616e6e6f74207769746864726177203607c1b6044820152606401610a33565b6119a6823361163e565b6001600160a01b03821660009081526001602081905260408220908101549091906119d290849061248c565b6001830181905533600090815260048401602052604081208054929350916119fb90869061248c565b808355905080158015611a1057506002820154155b15611a1e57611a1e866117eb565b60405185815233906001600160a01b038816907fd1c19fbcd4551a5edfb66d43d2e337c04837afda3482b42bdf569a8fccdae5fb9060200160405180910390a3505050505050565b604080516001600160a01b0385811660248301528481166044830152606480830185905283518084039091018152608490920183526020820180516001600160e01b03166323b872dd60e01b1790529151600092839290881691611aca91906124fa565b6000604051808303816000865af19150503d8060008114611b07576040519150601f19603f3d011682016040523d82523d6000602084013e611b0c565b606091505b5091509150818015611b36575080511580611b36575080806020019051810190611b369190612535565b611b8e5760405162461bcd60e51b8152602060048201526024808201527f5472616e7366657248656c7065723a205452414e534645525f46524f4d5f46416044820152631253115160e21b6064820152608401610a33565b505050505050565b6000805b8351811015611e0d576000848281518110611bb757611bb76123f1565b602002602001015190506000816020015111611c065760405162461bcd60e51b815260206004820152600e60248201526d043616e6e6f74207374616b6520360941b6044820152606401610a33565b80516001600160a01b031660009081526001602052604090208054600160401b900463ffffffff16611cc85781600001516001600160a01b03166000600201600081548110611c5757611c576123f1565b6000918252602090912001546001600160a01b031614611cc85760405162461bcd60e51b815260206004820152602660248201527f726577617264546f6b656e206e6f7420617574686f72697a656420666f72207360448201526574616b696e6760d01b6064820152608401610a33565b8151611cd4908661163e565b81602001518160010154611ce89190612438565b60018201556001600160a01b03851660009081526004820160209081526040909120805491840151909190611d1d9082612438565b825580158015611d2f57506002820154155b15611d90576001600160a01b0387811660008181526003602081815260408084208054600484528286208c5189168752845291852082905594845291815288516001830185559383529091200180546001600160a01b031916919092161790555b6020840151611d9f9087612438565b9550866001600160a01b031684600001516001600160a01b03167f5dac0c1b1112564a045ba943c9d50270893e8e826c49be8e7073adc713ab7bd78660200151604051611dee91815260200190565b60405180910390a3505050508080611e059061241d565b915050611b9a565b5092915050565b6001600160a01b038116600090815260016020526040902054600160401b900463ffffffff1680158015611e7b5750816001600160a01b031660006002018281548110611e6357611e636123f1565b6000918252602090912001546001600160a01b031614155b156103a057600280546001600160a01b03841660008181526001602081905260408220805463ffffffff909516600160401b0263ffffffff60401b199095169490941790935583549283018455929092527f405787fa12a823e0f2b7631cc41b3ba8828b3321ca811111fa75cd3aa3bb5ace0180546001600160a01b03191690911790555050565b6040518060a0016040528060006001600160a01b03168152602001600081526020016000815260200160008152602001600081525090565b6040518060a0016040528060006001600160a01b0316815260200160006001600160a01b031681526020016000815260200160008152602001600081525090565b60008060208385031215611f8f57600080fd5b823567ffffffffffffffff80821115611fa757600080fd5b818501915085601f830112611fbb57600080fd5b813581811115611fca57600080fd5b8660208260051b8501011115611fdf57600080fd5b60209290920196919550909350505050565b80356001600160a01b038116811461200857600080fd5b919050565b60006020828403121561201f57600080fd5b61135482611ff1565b81516001600160a01b031681526020808301519082015260408083015190820152606080830151908201526080808301519082015260a08101610488565b6000806040838503121561207957600080fd5b61208283611ff1565b915061209060208401611ff1565b90509250929050565b80516001600160a01b039081168352602080830151909116908301526040808201519083015260608082015190830152608090810151910152565b60a081016104888284612099565b6020808252825182820181905260009190848201906040850190845b8181101561212457612111838551612099565b9284019260a092909201916001016120fe565b50909695505050505050565b60008083601f84011261214257600080fd5b50813567ffffffffffffffff81111561215a57600080fd5b6020830191508360208260061b850101111561217557600080fd5b9250929050565b6000806020838503121561218f57600080fd5b823567ffffffffffffffff8111156121a657600080fd5b6121b285828601612130565b90969095509350505050565b600080602083850312156121d157600080fd5b823567ffffffffffffffff808211156121e957600080fd5b818501915085601f8301126121fd57600080fd5b81358181111561220c57600080fd5b866020606083028501011115611fdf57600080fd5b60006020828403121561223357600080fd5b5035919050565b634e487b7160e01b600052604160045260246000fd5b6040805190810167ffffffffffffffff811182821017156122735761227361223a565b60405290565b604051601f8201601f1916810167ffffffffffffffff811182821017156122a2576122a261223a565b604052919050565b600060208083850312156122bd57600080fd5b823567ffffffffffffffff808211156122d557600080fd5b818501915085601f8301126122e957600080fd5b8135818111156122fb576122fb61223a565b612309848260051b01612279565b818152848101925060069190911b83018401908782111561232957600080fd5b928401925b8184101561237357604084890312156123475760008081fd5b61234f612250565b61235885611ff1565b8152848601358682015283526040909301929184019161232e565b979650505050505050565b6020808252825182820181905260009190848201906040850190845b81811015612124576123de83855180516001600160a01b03168252602080820151908301526040808201519083015260608082015190830152608090810151910152565b9284019260a0929092019160010161239a565b634e487b7160e01b600052603260045260246000fd5b634e487b7160e01b600052601160045260246000fd5b600060001982141561243157612431612407565b5060010190565b6000821982111561244b5761244b612407565b500190565b60006020828403121561246257600080fd5b5051919050565b6020808252600990820152682737ba1037bbb732b960b91b604082015260600190565b60008282101561249e5761249e612407565b500390565b634e487b7160e01b600052603160045260246000fd5b60008160001904831182151516156124d3576124d3612407565b500290565b6000826124f557634e487b7160e01b600052601260045260246000fd5b500490565b6000825160005b8181101561251b5760208186018101518583015201612501565b8181111561252a576000828501525b509190910192915050565b60006020828403121561254757600080fd5b8151801515811461135457600080fdfea2646970667358221220febaf420a06ab05fe8c3ac726e8528220d38ebfd43976a8f5f0a1761d4d245fe64736f6c63430008090033",
    "sourcePath": "/home/mudgen/projects/quickswap/quickswap-contracts/contracts/QuickswapRouterV1.sol",
    "compiler": {
        "name": "solc",
        "version": "0.8.9+commit.e5eed63a"
    },
    "functionHashes": {
        "DRAGON_LAIR()": "1ad56247",
        "QUICK()": "188672a0",
        "balanceOf(address,address)": "f7888aec",
        "earned(address,address)": "211dc32d",
        "enterDragonLair(uint256)": "7de14cb2",
        "enterDragonLairAndStake((address,uint256)[])": "661adcec",
        "exitPools(address[])": "0f653e20",
        "getRewards(address[])": "510ccb43",
        "lastTimeRewardApplicable(address)": "638634ee",
        "notifyRewardAmount((address,uint256,uint256)[])": "6bedd933",
        "owner()": "8da5cb5b",
        "pool(address)": "156522a8",
        "pools()": "c5c51dca",
        "removeStakingPools(address[])": "8fa89112",
        "rewardPerToken(address)": "f1229777",
        "stake((address,uint256)[])": "801c5236",
        "stakerPool(address,address)": "44da9ae0",
        "stakerPools(address)": "4e7c5955",
        "totalSupply(address)": "e4dc2aa4",
        "transferOwnership(address)": "f2fde38b",
        "withdraw((address,uint256)[])": "ecdbb2b3",
        "withdrawAll(address[])": "6568a279"
    },
    "gasEstimates": {
        "creation": {
            "codeDepositCost": "1922600",
            "executionCost": "infinite",
            "totalCost": "infinite"
        },
        "external": {
            "DRAGON_LAIR()": "306",
            "QUICK()": "284",
            "balanceOf(address,address)": "infinite",
            "earned(address,address)": "infinite",
            "enterDragonLair(uint256)": "infinite",
            "enterDragonLairAndStake((address,uint256)[])": "infinite",
            "exitPools(address[])": "infinite",
            "getRewards(address[])": "infinite",
            "lastTimeRewardApplicable(address)": "infinite",
            "notifyRewardAmount((address,uint256,uint256)[])": "infinite",
            "owner()": "2420",
            "pool(address)": "infinite",
            "pools()": "infinite",
            "removeStakingPools(address[])": "infinite",
            "rewardPerToken(address)": "infinite",
            "stake((address,uint256)[])": "infinite",
            "stakerPool(address,address)": "infinite",
            "stakerPools(address)": "infinite",
            "totalSupply(address)": "2593",
            "transferOwnership(address)": "30475",
            "withdraw((address,uint256)[])": "infinite",
            "withdrawAll(address[])": "infinite"
        },
        "internal": {
            "_exitPools(address[] calldata,address)": "infinite",
            "_stake(struct QuickswapRouterV1.StakeInput memory[] memory,address)": "infinite",
            "_withdraw(address,uint256)": "infinite",
            "addRewardToken(address)": "81555",
            "min(uint256,uint256)": "61",
            "removeStakerStakingPools(address)": "111503",
            "updateReward(address,address)": "infinite"
        }
    }
}